11:29:30.123350 [MSG] 8=FIX.4.2|9=60|35=0|34=5|49=SENDER_COMP_ID|56=TARGET_COMP_ID|52=20250915-12:01:00.345|10=221|
11:30:00.123353 [MSG] 8=FIX.4.2|9=60|35=0|34=5|49=SENDER_COMP_ID|56=TARGET_COMP_ID|52=20250915-12:01:00.345|10=221|
11:30:00.123375 [MSG] 10.220.34.48@ordRpt[8=FIX.4.2|9=169|35=D|34=1|49=SENDER_COMP_ID|56=TARGET_COMP_ID|52=20250915-11:30:00.123|11=ORDER0001|21=1|55=2330|54=1|38=10000|40=2|44=1200|59=0|47=A|60=20250915-11:30:00.123|10=168|]  test
11:30:00.123450 [MSG] 88=FIX.4.2|9=189|35=G|34=2|49=SENDER_COMP_ID|56=TARGET_COMP_ID|52=20250915-11:35:02.456|11=ORDER0002|41=ORDER0001|21=1|55=2330|54=1|38=3000|40=2|44=1150|59=0|47=A|60=20250915-11:35:02.456|10=201|
11:30:00.121832 [MSG] 88=FIX.4.2|9=157|35=F|34=3|49=SENDER_COMP_ID|56=TARGET_COMP_ID|52=20250915-11:40:05.789|11=ORDER0003|41=ORDER0002|55=2330|54=1|38=3000|60=20250915-11:40:05.789|10=045|
